:020000040800F2
:10000000781100209902000877550008D10F0008E8
:100010000D510008350D00087F6800080000000041
:1000200000000000000000000000000089610008DE
:10003000390D000800000000115600087564000822
:10004000B3020008B3020008B302000831600008E0
:10005000B3020008B3020008B3020008B3020008AC
:10006000B3020008B3020008B3020008B30200089C
:10007000B3020008B3020008B3020008B30200088C
:10008000B3020008B3020008B3020008B30200087C
:10009000B3020008B3020008B3020008B30200086C
:1000A000B3020008B3020008B3020008B30200085C
:1000B000B3020008B3020008E1640008B3020008BC
:1000C000B3020008B3020008B3020008B30200083C
:1000D000B302000871660008B3020008B30200080A
:1000E000B3020008A5580008B3020008B3020008D4
:1000F000B3020008B3020008B3020008B30200080C
:10010000B3020008B3020008B3020008B3020008FB
:10011000B3020008B3020008B3020008B3020008EB
:10012000B3020008B3020008B3020008B3020008DB
:10013000B3020008B3020008B3020008B3020008CB
:10014000B3020008B3020008B3020008B3020008BB
:10015000B3020008B3020008B3020008B3020008AB
:10016000B3020008B3020008B3020008B30200089B
:10017000B3020008B3020008B3020008B30200088B
:10018000B3020008B302000800F002F800F075F8AE
:100190000AA090E8000C82448344AAF10107DA45E2
:1001A00001D100F06AF8AFF2090EBAE80F0013F0BF
:1001B000010F18BFFB1A43F00103184720A50000E8
:1001C00040A500000A444FF0000C10F8013B13F06A
:1001D000070408BF10F8014B1D1108BF10F8015BA0
:1001E000641E05D010F8016B641E01F8016BF9D193
:1001F00013F0080F1EBF10F8014BAD1C0C1B09D1EA
:100200006D1E58BF01F801CBFAD505E014F8016B5B
:1002100001F8016B6D1EF9D59142D6D370470000ED
:100220000023002400250026103A28BF78C1FBD8FF
:10023000520728BF30C148BF0B60704703681B0AD4
:1002400028BF41F08001642900F0A480752900F0E6
:10025000A180782900F01881F52900F0D780632962
:1002600000F06E84732900F07384002070471FB57E
:1002700009F002FB1FBD10B510BD00F09FFC114638
:10028000FFF7F5FF06F084FE00F0BDFC03B4FFF7B6
:10029000F2FF03BC06F00CFB094880470948004701
:1002A000FEE7FEE7FEE7FEE7FEE7FEE7FEE7FEE726
:1002B000FEE7FEE704480549054A064B7047000083
:1002C0007964000889010008780B0020781100206B
:1002D000780D0020780D0020704700000FB404490D
:1002E00010B503AA029800F037FC10BC5DF814FBAF
:1002F0003800002070B5044685690068C10601D544
:10030000302600E02026C00707D070BDD4E90121C7
:1003100030469047206A401C20626D1EF6D570BDA5
:1003200070B5044685690078C00707D170BDD4E96F
:10033000012120209047206A401C20626D1EF6D5C6
:1003400070BD70B50C460546012A05D02878800698
:1003500000D5EA69002302E0012305E05B1C93421B
:1003600002D2E05C0028F9D1A869E618C01AA86199
:10037000286A184428622846FFF7BCFF04E0D5E944
:10038000012114F8010B9047B442F8D32846FFF737
:10039000C7FF70BD2DE9F04106460024106875299D
:1003A000314616A510D0AFF30080002802DA404293
:1003B00013A507E031688A0701D512A502E04907B5
:1003C00004D511A5012401E0AFF3008000210A2229
:1003D00006F1240709E0B0FBF2FCB0FBF2F302FBEC
:1003E0001C00303078541846491C0028F3D12346AD
:1003F0002A463046BDE8F04100F03FBB0000000057
:100400002D0000002B000000200000002DE9F0412D
:100410008046D21D22F007020025D2E90002F5290C
:1004200015A614D0011E72F1000106DA0023D0EBEC
:10043000030063EB020211A608E0D8F800108B0756
:1004400001D50FA602E0490701D50EA601251146E8
:10045000002408F1240704E000F0CAFA30323A55CB
:10046000641C50EA0102F7D12B4632462146404631
:10047000BDE8F04100F001BB000000002D000000CD
:100480002B0000002000000070B504460D462146F8
:100490001068AFF300802188090502D50F4A7A441D
:1004A00002E00E4A7A440E32002104F1240305E0F2
:1004B00000F00F060009965D5E54491C0028F7D134
:1004C00020780023000704D5702D02D009B1022343
:1004D00011322046BDE8704000F0CFBAEE9D00001A
:1004E0002DE9F05F894604464FF0000ADFF874B149
:1004F000FB44C0F820A02046E1688847002874D05B
:10050000252806D0D4E901219047206A401C2062AA
:10051000F1E700265F462046E16888472028054627
:1005200007DB312D05D2781910F8200C08B10643ED
:10053000F1E7B00701D526F00406C4F81CA0002797
:10054000C4F818A02A2D09D0284606F09AF938B325
:1005500004EB8708303DC8F8185019E059F8041B1F
:10056000204604EB87029161E1688847012F054628
:1005700018D1E069002820DA26F020061DE0D8F81E
:10058000180000EB800005EB40003038C8F8180078
:100590002046E1688847054606F073F90028EED149
:1005A000012F0AD02E2D08D12046E16888477F1CF4
:1005B0000546022F46F02006C4DBA069002803DAB6
:1005C000404246F00106A061F00701D026F0100677
:1005D0006C2D0BD0682D09D04C2D39D06A2D35D01B
:1005E000742D35D07A2D33D016E038E0E1682F46EF
:1005F00020468847B842054609D16C2F26D04FF4D3
:100600008060E168064320468847054604E06C2F79
:100610001AD04FF4807006430DB3A5F1410019289C
:1006200002D8203546F400664A4629462046266010
:100630004E46FFF703FE80B101280BD0F61D26F0D1
:10064000070000F1080956E74020E4E78020D8E7DA
:100650000020D6E706F104094DE7284652E7206A54
:10066000BDE8F09FC49D000040EA010310B59B0760
:100670000FD1042A0DD310C808C9121F9C42F8D00C
:1006800020BA19BA884201D9012010BD4FF0FF30BD
:1006900010BD1AB1D30703D0521C07E0002010BDD3
:1006A00010F8013B11F8014B1B1B07D110F8013B5F
:1006B00011F8014B1B1B01D1921EF1D1184610BD40
:1006C000032A40F2308010F0030C00F0158011F87E
:1006D000013BBCF1020F624498BF11F801CB00F856
:1006E000013B38BF11F8013BA2F1040298BF00F8AA
:1006F00001CB38BF00F8013B11F0030300F0258067
:10070000083AC0F0088051F8043B083A51F804CB8D
:10071000A0E80810F5E7121D5CBF51F8043B40F853
:10072000043BAFF30080D20724BF11F8013B11F85E
:1007300001CB48BF11F8012B24BF00F8013B00F8A2
:1007400001CB48BF00F8012B704710B5203AC0F02C
:100750000B80B1E81850203AA0E81850B1E81850C2
:10076000A0E81850BFF4F5AF5FEA027C24BFB1E8FF
:100770001850A0E8185044BF18C918C0BDE8104070
:100780005FEA827C24BF51F8043B40F8043B08BF79
:100790007047D20728BF31F8023B48BF11F8012B40
:1007A00028BF20F8023B48BF00F8012B70474FF0EC
:1007B00000020429C0F0128010F0030C00F01B802E
:1007C000CCF1040CBCF1020F18BF00F8012BA8BF3C
:1007D00020F8022BA1EB0C0100F00DB85FEAC17C00
:1007E00024BF00F8012B00F8012B48BF00F8012BB3
:1007F00070474FF0000200B51346944696462039E4
:1008000022BFA0E80C50A0E80C50B1F12001BFF4C9
:10081000F7AF090728BFA0E80C5048BF0CC05DF82F
:1008200004EB890028BF40F8042B08BF704748BF7D
:1008300020F8022B11F0804F18BF00F8012B7047F1
:1008400010B503681C1404EB21449BB289B219440F
:1008500094FBF2F302FB134394FBF2F401EB03432A
:1008600093FBF2F102FB113193FBF2F301E05B1E0B
:1008700011440029FBDB016003EB044010BD2DE9AE
:10088000F04704464FF0FF3A86B000680290606877
:100890000390A0680490E068019020690090656969
:1008A00005F18040B0F1004F7DD83C22002102A824
:1008B000FFF7C6FF3C22014603A8FFF7C1FF18223D
:1008C000014604A8FFF7BCFF411E40F2B55201A843
:1008D000FFF7B6FF0C22064668460021FFF7B0FF7F
:1008E00000EB860028443E4D00267D440FE09A1A16
:1008F000491CCDE90012022902D00C2907D104E0DD
:10090000810704D0521C019201E0401C009600991E
:10091000019B6A5C9A42EADD012906D11C2B04D1B5
:10092000810702D00221CDE90016A0F146018B29F2
:1009300040D20199009B00220F4602E0AE5C521C9F
:1009400031449A42FADB012B02DD820700D0491EB6
:1009500040F2B55540F26D16C21700EB927292103C
:100960006A4300F0030505FB062285070A4400D10F
:10097000521E049D02EB4206DDF80C80A94605EBF1
:10098000C605184EC5EB0515DDF808C008EB850552
:1009900035442E14ADB2C6EB0616C5EB0515B600F0
:1009A0000CEB850500E005E006EB154666F31F45F8
:1009B000360C03D0504606B0BDE8F087C4E90430D9
:1009C0007F1C0720521CC4E9029792FBF0F3E4E875
:1009D00006C800FB132084E803042846EBE7000068
:1009E000DB990000A039CEFD704770477047704713
:1009F00030B5B0F10A024FEA900E71F100034EEAF1
:100A0000817EB0EB0E0061EB91014FEA101E4EEAC1
:100A1000017E10EB0E0041EB11114FEA102E4EEA51
:100A2000016E10EB0E0041EB11214FEA104E4EEA21
:100A3000014E10EB0E0041EB1141401841F1000155
:100A40004FEAD00040EA41704FEAD10110EB800537
:100A50004FEA810444EA907444EB01046D1944EBBD
:100A60000404521BA3414FF0000348BF0A3200D5D3
:100A700030BD401C41F1000130BD2DE9F0470D466D
:100A800099469246044600F124080168880604D578
:100A9000E06921F01001216000E00120A84201DDA1
:100AA000471B00E00027A1697A1902EB0900081A28
:100AB000A0612078C00602D42046FFF71BFC002668
:100AC00008E0D4E901211AF806009047206A401C8A
:100AD000761C20624E45F4DB2078C0060AD52046FD
:100AE000FFF708FC06E0D4E9012130209047206A96
:100AF000401C2062381EA7F10107F4DC07E0D4E9AE
:100B0000012118F805009047206A401C2062281E29
:100B1000A5F10105F3DC2046FFF702FC2078000672
:100B200002D50220BDE8F0870120FBE710B543693C
:100B300013B1AFF3008001E0FFF703FC012010BD0B
:100B4000127800F124010A7000224A700122EDE7B8
:100B500011684FF0FF32E9E7074B70B50D467B4453
:100B600000F015F80446284600F024F810B14FF0C4
:100B7000FF3070BD204670BD3763000000487047ED
:100B8000180B002001694A1C02610878704700B503
:100B90008FB0CDE901310021059105497944CDE9B6
:100BA000031011466846FFF79BFC0FB000BD000024
:100BB000E5FFFFFF007B00F0800070477546FFF700
:100BC000DDFFAE4605006946534620F00700854626
:100BD00018B020B5FFF76EFBBDE820404FF00006CF
:100BE0004FF000074FF000084FF0000B21F0070115
:100BF000AC46ACE8C009ACE8C009ACE8C009ACE858
:100C0000C0098D46704710B50446AFF300802046FA
:100C1000BDE81040FFF73ABB08B50A68120E8DF820
:100C200000200A68120C8DF801200A88120A8DF83B
:100C300002200A788DF8032002789DF800305A408F
:100C4000027002799DF801305A400271027A9DF8D3
:100C500002305A400272027B9DF803305A40027300
:100C60004A68120E8DF800204A68120C8DF8012097
:100C70008A88120A8DF802200A798DF803204278BA
:100C80009DF800305A40427042799DF801305A4038
:100C90004271427A9DF802305A404272427B9DF87E
:100CA00003305A4042738A68120E8DF800208A6819
:100CB000120C8DF801200A89120A8DF802200A7A96
:100CC0008DF8032082789DF800305A408270827936
:100CD0009DF801305A408271827A9DF802305A4064
:100CE0008272827B9DF803305A408273CA68120E6A
:100CF0008DF80020CA68120C8DF801208A89120A2A
:100D00008DF802200A7B8DF80320C2789DF8003010
:100D10005A40C270C2799DF801305A40C271C27AFD
:100D20009DF802305A40C272C27B9DF803305A408F
:100D3000C27308BD00BFFEE77047000001490860AC
:100D400070470000143C0140002123498279002AA9
:100D50003AD00A46126803689A430B461A600A1D85
:100D6000126803689A430B1D1A60027911440A68DD
:100D700003681A430A60184A0832126803689A43E3
:100D8000154B08331A601A1D126803689A43124BF8
:100D90000C331A604279102A0ED11A1F12680368A8
:100DA0001A430D4B08331A601A1D126803681A4360
:100DB000094B0C331A600DE00749427911440A6867
:100DC00003681A430A6005E0027911440A6803685F
:100DD0009A430A6070470000003C014051B1820014
:100DE000A2F1C042126842F001038200A2F1C042A7
:100DF000136009E08200A2F1C0421268034B1A405E
:100E00008300A3F1C0431A6070470000FEFF0F008B
:100E1000D0E901121143C2681143026911434269CA
:100E2000114382691143C2691143026A1143426A44
:100E30001143826A1143C26A1143026B1143026873
:100E40009200A2F1C0421160816808290BD10168AB
:100E50008900A1F1C041096841F0400201688900A0
:100E6000A1F1C0410A60416B0968426B526841EAD6
:100E70000211426B926841EA0221426B928941EA77
:100E80000241426B128A41EA0251426B127D41EAF1
:100E90000261426B926911430268521C9200A2F1F6
:100EA000C0421160C16AB1F5804F1BD1816B0968E6
:100EB000826B526841EA0211826B926841EA022118
:100EC000826B128A41EA0251826B127D41EA026111
:100ED000826B9269114302689200A2F1C042C2F88B
:100EE000041107E06FF0704201688900A1F1C04170
:100EF000C1F804217047F0B50A4600210023002400
:100F000000BF3DE0012505FA01F3156805EA030479
:100F10009C4234D105684F000326BE40B5430560AE
:100F200015794E00B5400668354305601579012DE9
:100F300002D01579022D16D185684F000326BE40D8
:100F4000B543856055794E00B54086683543856068
:100F5000456801268E40B5434560456896798E40C8
:100F6000B6B235434560C5684F000326BE40B54361
:100F7000C560D5794E00B540C6683543C560491C8B
:100F80001029BFD3F0BDF0B5002300244D07ED0EAE
:100F900002FA05F3CE1000F1200555F826504E0751
:100FA000F70E0F26BE40B543CF1000F1200646F8DD
:100FB0002750CE1000F1200555F8265045EA0304CD
:100FC000CE1000F1200545F82640F0BD01837047A2
:100FD00000BFFEE770B50446002617480588408824
:100FE00045431548808846F60401884216D11248C8
:100FF0008079012812D100200F4988712A20488168
:101000002B2088810021084603F060FF01200A4957
:1010100088712B2048812A20888103E0002108461E
:1010200003F054FF04F03EF8002602E00348048079
:10103000761CAE42FAD370BD280800208000006CF8
:1010400010B50446002C66D16C498871F0200880E8
:101050004FF4A07048800846808849F241318842A8
:101060000BD06648808846F60401884205D0634864
:10107000808845F2103188421AD12C205F490881BE
:101080002A2048812B2088810846808846F6040162
:10109000884205D05948808845F21031884206D1EF
:1010A0004FF4A070554908804FF4F0704880A1E0DB
:1010B0005248808845F21051884210D14FF4305088
:1010C0004E4908814FF4285048814FF42C508881B4
:1010D0004FF4F07008804FF4487048808AE0474829
:1010E000808841F6631188420DD12C204349088144
:1010F0002B2048812A2088814FF4F07008804FF41B
:101100004870488076E022203C49088120204881B0
:10111000212088816EE00120384988714FF4A07049
:101120000880F02048800846808849F24131884292
:1011300005D03248808845F21031884207D12C20F2
:101140002E4908812A2048812B2088813FE02B48A6
:10115000808846F60401884207D12C20274908815F
:101160002B2048812A20888131E02448808845F25C
:101170001051884210D14FF43050204908814FF46B
:10118000285048814FF42C5088814FF448700880D3
:101190004FF4F07048801AE01848808841F66311D7
:1011A00088420DD12C20154908812A2048812B2006
:1011B00088814FF4487008804FF4F070488006E052
:1011C00022200E49088121204881202088810B4857
:1011D000808846F60401884205D00848808845F298
:1011E0001031884206D14FF4F070044908804FF462
:1011F000A0704880002003F0F3FC10BD28080020F8
:1012000000B5A1B00020209001217A2004F002FA5C
:101210000121084604F00EFA4FF400401E90012010
:101220008DF87C0000208DF87E0002208DF87D0076
:1012300001208DF87F001EA9FE48FFF75CFE4CF2EE
:1012400033701E9002208DF87C0000208DF87E0007
:1012500003208DF87D0001208DF87F001EA9F6483F
:10126000FFF749FE4FF680701E9002208DF87C003B
:1012700000208DF87E0003208DF87D0001208DF880
:101280007F001EA9ED48FFF736FE4FF480501E90F8
:1012900002208DF87C0000208DF87E0003208DF860
:1012A0007D0001208DF87F001EA9E548FFF723FE91
:1012B0004FF480501E9002208DF87C0000208DF8A5
:1012C0007E0003208DF87D0001208DF87F001EA98F
:1012D000DC48FFF710FE0C220021D748FFF753FE31
:1012E0000C220121D448FFF74EFE0C220421D248E3
:1012F000FFF749FE0C220521CF48FFF744FE0C22E0
:101300000821CD48FFF73FFE0C220921CA48FFF70C
:101310003AFE0C220A21C848FFF735FE0C220E21A6
:10132000C548FFF730FE0C220F21C348FFF72BFE04
:101330000C220721C148FFF726FE0C220821BF48D6
:10134000FFF721FE0C220921BC48FFF71CFE0C22EE
:101350000A21BA48FFF717FE0C220B21B748FFF706
:1013600012FE0C221146B548FFF70DFE0C220D218E
:10137000B248FFF708FE0C220E21B048FFF703FE2B
:101380000C220F21AD48FFF7FEFD0C221146AC48A0
:10139000FFF7F9FD0C221146AA48FFF7F4FD0F20D4
:1013A0000890002009903C200A9000200B900C909F
:1013B0000D900E90092001900020029008200390CB
:1013C0000020049005900690079006200F900020C2
:1013D00010901190102012900020139015901490EE
:1013E000169017904FF480501890002019904FF4E9
:1013F00080401A9000201B9008A81C9001A81D9006
:101400000FA8FFF705FD01210620FFF7E7FC3220BA
:1014100005F08CFC0121002003F04EFE322005F087
:1014200085FC002003F0A0FB87498880084680885F
:10143000FF280ADB084680884FF6FF71884204D0F7
:1014400081488088B0F5134F7ED1D32003F01EFE73
:1014500003F080FB7C49888003F07CFB7A4988801C
:1014600003F078FB78498880084680884FF6FF7142
:1014700001EA00207449888003F06CFB7249898876
:101480000843714988800846808849F24131884282
:101490005AD0BF2003F0FAFD03F05CFB6A49888054
:1014A00003F058FB6849888003F054FB6649888044
:1014B00003F050FB64498880084680884FF6FF712E
:1014C00001EA00206049888003F044FB5E49898876
:1014D00008435D4988800846808846F604018842B2
:1014E0007AD0D42003F0D2FD03F034FB5649888033
:1014F00003F030FB5449888003F02CFB524988806C
:10150000084680884FF6FF7101EA00204E49888026
:1015100003F020FB4C49898808434B4988800846E2
:10152000808845F21031884256D04FF45A4003F07B
:10153000ADFD03F00FFB444988804FF45B4003F09E
:10154000A5FD03F007FB00E046E03F498880084620
:1015500080884FF6FF7101EA00203B4988804FF4F4
:101560005C4003F093FD03F0F5FA3749898808439E
:101570003549888008468088B0F5004F02D145F291
:10158000105088803048808845F21051884223D01E
:10159000A12003F07BFD03F0DDFA2B49888003F0E6
:1015A000D9FA29498880084680884FF6FF7101EAF8
:1015B00000202549888003F0CDFA23498988084313
:1015C000214988800846808845F26171884203D1AC
:1015D00041F663101C4988801B48808849F24131DC
:1015E000884211D01848808845F2103188420BD0CB
:1015F0001548808845F21051884205D012488088ED
:1016000041F6631188422DD11048006820F00F0088
:101610004FF02041C1F81C010846D0F81C0120F40D
:101620007060C1F81C010846D0F81C0140F00300AE
:101630000EE0000000040240000C024000100240D6
:101640000014024000180240280800201C0100A0DD
:10165000C1F81C010846D0F81C0140F40070C1F824
:101660001C0128E0FB48808846F60401884205D02A
:10167000F84880884CF2055188421CD1F648006831
:1016800020F00F004FF02041C1F81C010846D0F8AF
:101690001C0120F47060C1F81C010846D0F81C0140
:1016A00040F00A00C1F81C010846D0F81C0140F4C3
:1016B0004060C1F81C01E748808849F24131884206
:1016C0007ED1CF2003F0E2FC002003F0D3FCC12048
:1016D00003F0D0FC302003F0CDFCED2003F0D6FC6D
:1016E000642003F0C7FC032003F0C4FC122003F0C5
:1016F000C1FC812003F0BEFCE82003F0C7FC85207C
:1017000003F0B8FC102003F0B5FC7A2003F0B2FC23
:10171000CB2003F0BBFC392003F0ACFC2C2003F001
:10172000A9FC002003F0A6FC342003F0A3FC022057
:1017300003F0A0FCF72003F0A9FC202003F09AFCA2
:10174000EA2003F0A3FC002003F094FC002003F047
:1017500091FCC02003F09AFC1B2003F08BFCC120FD
:1017600003F094FC012003F085FCC52003F08EFCFF
:10177000302003F07FFC302003F07CFCC72003F016
:1017800085FCB72003F076FC362003F07FFC482070
:1017900003F070FC3A2003F079FC552003F06AFC5A
:1017A000B12003F073FC002003F064FC1A2003F066
:1017B00061FCB62003F06AFC0A2003F05BFC00E049
:1017C00097E0A22003F056FCF22003F05FFC00201B
:1017D00003F050FC262003F059FC012003F04AFCE2
:1017E000E02003F053FC0F2003F044FC2A2003F018
:1017F00041FC282003F03EFC082003F03BFC0E20B7
:1018000003F038FC082003F035FC542003F032FCD0
:10181000A92003F02FFC432003F02CFC0A2003F046
:1018200029FC0F2003F026FC002003F023FC0020FD
:1018300003F020FC002003F01DFC002003F01AFC44
:10184000E12003F023FC002003F014FC152003F03A
:1018500011FC172003F00EFC072003F00BFC1120F5
:1018600003F008FC062003F005FC2B2003F002FC2B
:10187000562003F0FFFB3C2003F0FCFB052003F0A7
:10188000F9FB102003F0F6FB0F2003F0F3FB3F20E1
:1018900003F0F0FB3F2003F0EDFB0F2003F0EAFB29
:1018A0002B2003F0F3FB002003F0E4FB002003F007
:1018B000E1FB012003F0DEFB3F2003F0DBFB2A20ED
:1018C00003F0E4FB002003F0D5FB002003F0D2FB83
:1018D000002003F0CFFBEF2003F0CCFB112003F03E
:1018E000D5FB782005F022FA292003F0CFFB03F086
:1018F00021B95848808846F6040188427ED11120DB
:1019000003F0C4FB142005F011FAD02003F0BEFB55
:10191000072003F0AFFB422003F0ACFB1D2003F0D7
:10192000A9FBD12003F0B2FB002003F0A3FB1A2097
:1019300003F0A0FB092003F09DFBD22003F0A6FBDF
:10194000012003F097FB222003F094FBC02003F05A
:101950009DFB102003F08EFB3B2003F08BFB00204F
:1019600003F088FB022003F085FB112003F082FBCB
:10197000C52003F08BFB032003F07CFBC82003F0A1
:1019800085FB002003F076FB252003F073FB21206C
:1019900003F070FB052003F06DFB002003F06AFBF1
:1019A0000A2003F067FB652003F064FB252003F0A9
:1019B00061FB772003F05EFB502003F05BFB0F2000
:1019C00003F058FB002003F055FBF82003F05EFB0A
:1019D000012003F04FFBFE2003F058FB002003F032
:1019E00049FB022003F046FB202003F04FFB36208A
:1019F00003F04CFB082003F03DFB00E02EE03A2012
:101A000003F044FB552003F035FB2B2003F03EFB95
:101A1000002003F02FFB002003F02CFB012003F03B
:101A200029FB3F2003F026FB2A2003F02FFB002098
:101A300003F020FB002003F01DFB012003F01AFB44
:101A4000DF2003F017FB782005F070F9292003F060
:101A50001DFB4CE7280800201C0100A0FE488088E0
:101A600045F21031884240F07C87ED2003F00EFBF8
:101A7000012003F0FFFAFE2003F0FCFAEE2003F051
:101A800005FBDE2003F0F6FA212003F0F3FAF12043
:101A900003F0FCFA012003F0EDFADF2003F0F6FA80
:101AA000102003F0E7FAC42003F0F0FA8F2003F0CF
:101AB000E1FAC62003F0EAFA002003F0DBFAE220A4
:101AC00003F0D8FAE22003F0D5FAE22003F0D2FACC
:101AD000BF2003F0DBFAAA2003F0CCFAB02003F019
:101AE000D5FA0D2003F0C6FA002003F0C3FA0D204A
:101AF00003F0C0FA002003F0BDFA112003F0BAFA97
:101B0000002003F0B7FA192003F0B4FA002003F024
:101B1000B1FA212003F0AEFA002003F0ABFA2D2039
:101B200003F0A8FA002003F0A5FA3D2003F0A2FA82
:101B3000002003F09FFA5D2003F09CFA002003F0E0
:101B400099FA5D2003F096FA002003F093FAB12091
:101B500003F09CFA802003F08DFA002003F08AFA4B
:101B60008B2003F087FA002003F084FA962003F01C
:101B700081FA002003F07EFAB22003F087FA0020F9
:101B800003F078FA002003F075FA022003F072FAED
:101B9000002003F06FFA032003F06CFA002003F03A
:101BA00069FAB32003F072FA002003F063FA002010
:101BB00003F060FA002003F05DFA002003F05AFA07
:101BC000002003F057FA002003F054FA002003F03D
:101BD00051FA002003F04EFA002003F04BFA0020E7
:101BE00003F048FA002003F045FA002003F042FA1F
:101BF000002003F03FFA002003F03CFA002003F03D
:101C000039FA002003F036FA002003F033FA0020FE
:101C100003F030FA002003F02DFA002003F02AFA36
:101C2000002003F027FA002003F024FA002003F03C
:101C300021FA002003F01EFAB42003F027FA8B20CB
:101C400003F018FA002003F015FA962003F012FAB8
:101C5000002003F00FFAA12003F00CFA002003F09B
:101C600009FAB52003F012FA022003F003FA00206B
:101C700003F000FA032003F0FDF9002003F0FAF965
:101C8000042003F0F7F9002003F0F4F9B62003F084
:101C9000FDF9002003F0EEF9002003F0EBF9B72086
:101CA00003F0F4F9002003F0E5F9002003F0E2F975
:101CB0003F2003F0DFF9002003F0DCF95E2003F0A1
:101CC000D9F9002003F0D6F9642003F0D3F90020FD
:101CD00003F0D0F98C2003F0CDF9002003F0CAF90D
:101CE000AC2003F0C7F9002003F0C4F9DC2003F0B6
:101CF000C1F9002003F0BEF9702003F0BBF9002009
:101D000003F0B8F9902003F0B5F9002003F0B2F920
:101D1000EB2003F0AFF9002003F0ACF9DC2003F076
:101D2000A9F9002003F0A6F9B82003F0AFF90020CC
:101D300003F0A0F9002003F09DF9002003F09AF9C8
:101D4000002003F097F9002003F094F9002003F03D
:101D500091F9002003F08EF9002003F08BF9BA20EE
:101D600003F094F9242003F085F9002003F082F9B0
:101D7000002003F07FF9002003F07CF9C12003F07C
:101D800085F9202003F076F9002003F073F9542040
:101D900003F070F9002003F06DF9FF2003F06AF9F9
:101DA000002003F067F9C22003F070F90A2003F065
:101DB00061F9002003F05EF9042003F05BF90020D4
:101DC00003F058F9C32003F061F93C2003F052F905
:101DD000002003F04FF93A2003F04CF9002003F003
:101DE00049F9392003F046F9002003F043F9372080
:101DF00003F040F9002003F03DF93C2003F03AF9EC
:101E0000002003F037F9362003F034F9002003F006
:101E100031F9322003F02EF9002003F02BF92F20A6
:101E200003F028F9002003F025F92C2003F022F913
:101E3000002003F01FF9292003F01CF9002003F013
:101E400019F9262003F016F9002003F013F92420D5
:101E500003F010F9002001E02808002003F00AF93F
:101E6000242003F007F9002003F004F9232003F0F5
:101E700001F9002003F0FEF83C2003F0FBF80020FD
:101E800003F0F8F8362003F0F5F8002003F0F2F83C
:101E9000322003F0EFF8002003F0ECF82F2003F0DD
:101EA000E9F8002003F0E6F82C2003F0E3F8002026
:101EB00003F0E0F8292003F0DDF8002003F0DAF861
:101EC000262003F0D7F8002003F0D4F8242003F0F4
:101ED000D1F8002003F0CEF8242003F0CBF8002046
:101EE00003F0C8F8232003F0C5F8002003F0C2F87F
:101EF000C42003F0CBF8622003F0BCF8002003F00C
:101F0000B9F8052003F0B6F8002003F0B3F88420F8
:101F100003F0B0F8002003F0ADF8F02003F0AAF8C9
:101F2000002003F0A7F8182003F0A4F8002003F025
:101F3000A1F8A42003F09EF8002003F09BF81820DD
:101F400003F098F8002003F095F8502003F092F881
:101F5000002003F08FF80C2003F08CF8002003F031
:101F600089F8172003F086F8002003F083F8952005
:101F700003F080F8002003F07DF8F32003F07AF8F6
:101F8000002003F077F8E62003F074F8002003F057
:101F900071F8C52003F07AF8322003F06BF80020C6
:101FA00003F068F8442003F065F8002003F062F8BD
:101FB000652003F05FF8002003F05CF8762003F062
:101FC00059F8002003F056F8882003F053F8002059
:101FD00003F050F8C62003F059F8202003F04AF827
:101FE000002003F047F8172003F044F8002003F026
:101FF00041F8012003F03EF8002003F03BF8C72031
:1020000003F044F8002003F035F8002003F032F824
:10201000002003F02FF8002003F02CF8C82003F074
:1020200035F8002003F026F8002003F023F8002004
:1020300003F020F8002003F01DF8C92003F026F873
:10204000002003F017F8002003F014F8002003F03C
:1020500011F8002003F00EF8002003F00BF8002028
:1020600003F008F8002003F005F8002003F002F860
:10207000002002F0FFFF002002F0FCFF002002F031
:10208000F9FF002002F0F6FF002002F0F3FF00202D
:1020900002F0F0FF002002F0EDFF002002F0EAFF66
:1020A000E02002F0F3FF162002F0E4FF002002F02F
:1020B000E1FF1C2002F0DEFF002002F0DBFF212008
:1020C00002F0D8FF002002F0D5FF362002F0D2FF48
:1020D000002002F0CFFF462002F0CCFF002002F0EB
:1020E000C9FF522002F0C6FF002002F0C3FF6420A7
:1020F00002F0C0FF002002F0BDFF7A2002F0BAFF1C
:10210000002002F0B7FF8B2002F0B4FF002002F0A5
:10211000B1FF992002F0AEFF002002F0ABFFA82033
:1021200002F0A8FF002002F0A5FFB92002F0A2FFF4
:10213000002002F09FFFC42002F09CFF002002F06C
:1021400099FFCA2002F096FF002002F093FFD220F0
:1021500002F090FF002002F08DFFD92002F08AFFEC
:10216000002002F087FFE02002F084FF002002F050
:1021700081FFF32002F07EFF002002F07BFFE120D0
:1021800002F084FF162002F075FF002002F072FFBB
:102190001C2002F06FFF002002F06CFF222002F0F2
:1021A00069FF002002F066FF362002F063FF002086
:1021B00002F060FF452002F05DFF002002F05AFFB0
:1021C000522002F057FF002002F054FF642002F07A
:1021D00051FF002002F04EFF7A2002F04BFF00205A
:1021E00002F048FF8B2002F045FF002002F042FF82
:1021F000992002F03FFF002002F03CFFA82002F0EF
:1022000039FF002002F036FFB92002F033FF002032
:1022100002F030FFC42002F02DFF002002F02AFF60
:10222000CA2002F027FF002002F024FFD22002F093
:1022300021FF002002F01EFFD82002F01BFF00202B
:1022400002F018FFE02002F015FF002002F012FF5C
:10225000F32002F00FFF002002F00CFFE22002F05A
:1022600015FF052002F006FF002002F003FF0B20FF
:1022700002F000FF002002F0FDFE1B2002F0FAFE3B
:10228000002002F0F7FE342002F0F4FE002002F0FD
:10229000F1FE442002F0EEFE002002F0EBFE4F20A3
:1022A00002F0E8FE002002F0E5FE612002F0E2FE0E
:1022B000002002F0DFFE792002F0DCFE002002F0B8
:1022C000D9FE882002F0D6FE002002F0D3FE97202F
:1022D00002F0D0FE002002F0CDFEA62002F0CAFEE1
:1022E000002002F0C7FEB72002F0C4FE002002F07A
:1022F000C1FEC22002F0BEFE002002F0BBFEC720DD
:1023000002F0B8FE002002F0B5FED12002F0B2FECD
:10231000002002F0AFFED62002F0ACFE002002F05A
:10232000A9FEDD2002F0A6FE002002F0A3FEF320AD
:1023300002F0A0FE002002F09DFEE32002F0A6FEC7
:10234000052002F097FE002002F094FE0A2002F021
:1023500091FE002002F08EFE1C2002F08BFE002079
:1023600002F088FE332002F085FE002002F082FE9B
:10237000442002F07FFE002002F07CFE502002F09C
:1023800079FE002002F076FE622002F073FE00204B
:1023900002F070FE782002F06DFE002002F06AFE6E
:1023A000882002F067FE002002F064FE972002F011
:1023B00061FE002002F05EFEA62002F05BFE00201F
:1023C00002F058FEB72002F055FE002002F052FE47
:1023D000C22002F04FFE002002F04CFEC72002F0A7
:1023E00049FE002002F046FED12002F043FE00200C
:1023F00002F040FED52002F03DFE002002F03AFE41
:10240000DD2002F037FE002002F034FEF32002F05F
:1024100031FE002002F02EFEE42002F037FE012003
:1024200002F028FE002002F025FE012002F022FE2C
:10243000002002F01FFE022002F01CFE002002F02D
:1024400019FE2A2002F016FE002002F013FE3C20A6
:1024500002F010FE002002F00DFE4B2002F00AFEFA
:10246000002002F007FE5D2002F004FE002002F0D2
:1024700001FE742002F0FEFD002002F0FBFD84202E
:1024800002F0F8FD002002F0F5FD932002F0F2FDCD
:10249000002002F0EFFDA22002F0ECFD002002F08F
:1024A000E9FDB32002F0E6FD002002F0E3FDBE20CE
:1024B00002F0E0FD002002F0DDFDC42002F0DAFDB4
:1024C000002002F0D7FDCD2002F0D4FD002002F064
:1024D000D1FDD32002F0CEFD002002F0CBFDDD20A7
:1024E00002F0C8FD002002F0C5FDF32002F0C2FD9D
:1024F000002002F0BFFDE52002F0C8FD002002F040
:10250000B9FD002002F0B6FD002002F0B3FD00206E
:1025100002F0B0FD022002F0ADFD002002F0AAFDA5
:10252000292002F0A7FD002002F0A4FD3C2002F0CB
:10253000A1FD002002F09EFD4B2002F09BFD00203B
:1025400002F098FD5D2002F095FD002002F092FD62
:10255000742002F08FFD002002F08CFD842002F038
:1025600089FD002002F086FD932002F083FD00200B
:1025700002F080FDA22002F07DFD002002F07AFD35
:10258000B32002F077FD002002F074FDBE2002F0BF
:1025900071FD002002F06EFDC42002F06BFD0020F2
:1025A00002F068FDCD2002F065FD002002F062FD22
:1025B000D32002F05FFD002002F05CFDDC2002F081
:1025C00059FD002002F056FDF32002F053FD0020DB
:1025D00002F050FDE62002F059FD112002F04AFD04
:1025E000002002F047FD342002F044FD002002F0FC
:1025F00041FD562002F03EFD002002F03BFD76201A
:1026000002F038FD002002F035FD772002F032FDA7
:10261000002002F02FFD662002F02CFD002002F0C9
:1026200029FD882002F026FD002002F023FD9920DC
:1026300002F020FD002002F01DFDBB2002F01AFD7B
:10264000002002F017FD992002F014FD002002F096
:1026500011FD662002F00EFD002002F00BFD55205A
:1026600002F008FD002002F005FD552002F002FDF9
:10267000002002F0FFFC452002F0FCFC002002F0EC
:10268000F9FC432002F0F6FC002002F0F3FC4420A9
:1026900002F0F0FC002002F0EDFCE72002F0F6FC76
:1026A000322002F0E7FC002002F0E4FC552002F0AA
:1026B000E1FC002002F0DEFC762002F0DBFC0020D2
:1026C00002F0D8FC662002F0D5FC002002F0D2FC1B
:1026D000672002F0CFFC002002F0CCFC672002F063
:1026E000C9FC002002F0C6FC872002F0C3FC0020D9
:1026F00002F0C0FC992002F0BDFC002002F0BAFC00
:10270000BB2002F0B7FC002002F0B4FC992002F0DC
:10271000B1FC002002F0AEFC772002F0ABFC002000
:1027200002F0A8FC442002F0A5FC002002F0A2FC6C
:10273000562002F09FFC002002F09CFC232002F0B7
:1027400099FC002002F096FC332002F093FC00205C
:1027500002F090FC452002F08DFC002002F08AFC83
:10276000E82002F093FC002002F084FC002002F03C
:1027700081FC992002F07EFC002002F07BFC872087
:1027800002F078FC002002F075FC882002F072FC58
:10279000002002F06FFC772002F06CFC002002F0B9
:1027A00069FC662002F066FC002002F063FC8820D1
:1027B00002F060FC002002F05DFCAA2002F05AFC4E
:1027C000002002F057FCBB2002F054FC002002F075
:1027D00051FC992002F04EFC002002F04BFC6620D8
:1027E00002F048FC002002F045FC552002F042FCBB
:1027F000002002F03FFC552002F03CFC002002F0DB
:1028000039FC442002F036FC002002F033FC442066
:1028100002F030FC002002F02DFC552002F02AFCD2
:10282000002002F027FCE92002F030FCAA2002F090
:1028300021FC002002F01EFC002002F01BFC002006
:1028400002F018FC002002F021FCAA2002F012FC89
:10285000CF2002F01BFC002002F00CFC002002F054
:1028600009FC002002F006FC002002F003FC00201E
:1028700002F000FC002002F0FDFB002002F0FAFB59
:10288000002002F0F7FB002002F0F4FB002002F031
:10289000F1FB002002F0EEFB002002F0EBFB002039
:1028A00002F0E8FB002002F0E5FB002002F0E2FB72
:1028B000002002F0DFFB002002F0DCFBF02002F041
:1028C000E5FB002002F0D6FB502002F0D3FB0020F5
:1028D00002F0D0FB002002F0CDFB002002F0CAFB8A
:1028E000F32002F0D3FB002002F0C4FBF92002F039
:1028F000CDFB062002F0BEFB102002F0BBFB29201E
:1029000002F0B8FB002002F0B5FB3A2002F0BEFB5B
:10291000552002F0AFFB112002F0B8FB642004F058
:1029200005FA292002F0B2FB352002F0AFFB0020AF
:1029300002F0A0FB512002F0A9FBFF2002F09AFB5D
:10294000532002F0A3FB2C2002F094FB552002F050
:102950009DFB822002F08EFB2C2002F097FB02F000
:10296000E9B8FE48808845F2105188427ED1552151
:102970004FF4704002F0A0FBAA214FF2010002F0D8
:102980009BFB52214FF2020002F096FB08214FF20E
:10299000030002F091FB01214FF2040002F08CFBD6
:1029A0000D214FF4304002F087FB0D214BF2010066
:1029B00002F082FB0D214BF2020002F07DFB34217C
:1029C0004FF4364002F078FB34214BF2016002F004
:1029D00073FB34214BF2026002F06EFB0D214FF4C9
:1029E000314002F069FB0D214BF2011002F064FB53
:1029F0000D214BF2021002F05FFB34214FF43740FF
:102A000002F05AFB34214BF2017002F055FB3421E5
:102A10004BF2027002F050FB00214FF4324002F002
:102A20004BFB00214BF2012002F046FB00214BF250
:102A3000022002F041FB24214FF4384002F03CFB1D
:102A400024214BF6010002F037FB24214BF6020053
:102A500002F032FB01214FF43F4002F02DFB0F2129
:102A60004FF4334002F028FB0F2100E0FEE34BF26D
:102A7000013002F021FB0F214BF2023002F01CFB6F
:102A800034214FF4394002F017FB34214BF601108A
:102A900002F012FB34214BF6021002F00DFB08216C
:102AA0004FF4354002F008FB08214BF2015002F0D0
:102AB00003FB08214BF2025002F0FEFA03214FF40F
:102AC000424002F0F9FA24214FF43A4002F0F4FABD
:102AD00024214BF6012002F0EFFA24214BF60220CC
:102AE00002F0EAFA00214FF43C4002F0E5FA7821C6
:102AF0004BF6014002F0E0FA00214BF6024002F0F2
:102B0000DBFA00214FF43D4002F0D6FA78214BF673
:102B1000015002F0D1FA00214BF6025002F0CCFA3B
:102B200000214FF43E4002F0C7FA64214BF60160E9
:102B300002F0C2FA00214FF4514002F0BDFA3321F5
:102B40004DF2011002F0B8FA00214DF2021002F02D
:102B5000B3FA34214DF2031002F0AEFA00214DF227
:102B6000041002F0A9FA3A214DF2051002F0A4FA7D
:102B700000214DF2061002F09FFA4A214DF2071093
:102B800002F09AFA00214DF2081002F095FA5C2149
:102B90004DF2091002F090FA00214DF20A1002F0F5
:102BA0008BFA81214DF20B1002F086FA00214DF2D2
:102BB0000C1002F081FAA6214DF20D1002F07CFA01
:102BC00000214DF20E1002F077FAE5214DF20F10C0
:102BD00002F072FA01214DF2101002F06DFA132189
:102BE0004DF2111002F068FA01214DF2121002F0BC
:102BF00063FA54214DF2131002F05EFA01214DF2F6
:102C0000141002F059FA82214DF2151002F054FA14
:102C100001214DF2161002F04FFACA214DF21710A1
:102C200002F04AFA02214DF2181002F045FA002192
:102C30004DF2191002F040FA02214DF21A1002F082
:102C40003BFA01214DF21B1002F036FA02214DF23F
:102C50001C1002F031FA34214DF21D1002F02CFA52
:102C600002214DF21E1002F027FA67214DF21F10CB
:102C700002F022FA02214DF2201002F01DFA842106
:102C80004DF2211002F018FA02214DF2221002F04A
:102C900013FAA4214DF2231002F00EFA02214DF294
:102CA000241002F009FAB7214DF2251002F004FABF
:102CB00002214DF2261002F0FFF9CF214DF227102C
:102CC00002F0FAF902214DF2281002F0F5F9DE21A6
:102CD0004DF2291002F0F0F902214DF22A1002F013
:102CE000EBF9F2214DF22B1002F0E6F902214DF240
:102CF0002C1002F0E1F9FE214DF22D1002F0DCF96A
:102D000003214DF22E1002F0D7F910214DF22F10B1
:102D100002F0D2F903214DF2301002F0CDF9332147
:102D20004DF2311002F0C8F903214DF2321002F0D9
:102D3000C3F96D214DF2331002F0BEF900214FF4BA
:102D4000524002F0B9F933214DF2012002F0B4F9FA
:102D500000214DF2022002F0AFF901E02808002026
:102D600034214DF2032002F0A7F900214DF2042096
:102D700002F0A2F93A214DF2052002F09DF900215E
:102D80004DF2062002F098F94A214DF2072002F098
:102D900093F900214DF2082002F08EF95C214DF2EA
:102DA000092002F089F900214DF20A2002F084F98D
:102DB00081214DF20B2002F07FF900214DF20C2011
:102DC00002F07AF9A6214DF20D2002F075F90021EA
:102DD0004DF20E2002F070F9E5214DF20F2002F0C5
:102DE0006BF901214DF2102002F066F913214DF22A
:102DF000112002F061F901214DF2122002F05CF97C
:102E000054214DF2132002F057F901214DF2142004
:102E100002F052F982214DF2152002F04DF9012104
:102E20004DF2162002F048F9CA214DF2172002F0A7
:102E300043F902214DF2182002F03EF900214DF233
:102E4000192002F039F902214DF21A2002F034F96A
:102E500001214DF21B2002F02FF902214DF21C201E
:102E600002F02AF934214DF21D2002F025F9022149
:102E70004DF21E2002F020F967214DF21F2002F0D2
:102E80001BF902214DF2202002F016F984214DF2A7
:102E9000212002F011F902214DF2222002F00CF95A
:102EA000A4214DF2232002F007F902214DF2242043
:102EB00002F002F9B7214DF2252002F0FDF80221BF
:102EC0004DF2262002F0F8F8CF214DF2272002F033
:102ED000F3F802214DF2282002F0EEF8DE214DF247
:102EE000292002F0E9F802214DF22A2002F0E4F84C
:102EF000F2214DF22B2002F0DFF802214DF22C20BE
:102F000002F0DAF8FE214DF22D2002F0D5F803216F
:102F10004DF22E2002F0D0F810214DF22F2002F0B9
:102F2000CBF803214DF2302002F0C6F833214DF2E8
:102F3000312002F0C1F803214DF2322002F0BCF83A
:102F40006D214DF2332002F0B7F800214FF45340C9
:102F500002F0B2F833214DF2013002F0ADF8002159
:102F60004DF2023002F0A8F834214DF2033002F0A5
:102F7000A3F800214DF2043002F09EF83A214DF200
:102F8000053002F099F800214DF2063002F094F875
:102F90004A214DF2073002F08FF800214DF208303F
:102FA00002F08AF85C214DF2093002F085F8002128
:102FB0004DF20A3002F080F881214DF20B3002F020
:102FC0007BF800214DF20C3002F076F8A6214DF28C
:102FD0000D3002F071F800214DF20E3002F06CF865
:102FE000E5214DF20F3002F067F801214DF210306B
:102FF00002F062F813214DF2113002F05DF8012168
:103000004DF2123002F058F854214DF2133002F014
:1030100053F801214DF2143002F04EF882214DF2A6
:10302000153002F049F801214DF2163002F044F853
:10303000CA214DF2173002F03FF802214DF218304C
:1030400002F03AF800214DF2193002F035F8022171
:103050004DF21A3002F030F801214DF21B3002F02F
:103060002BF802214DF21C3002F026F834214DF2EB
:103070001D3002F021F802214DF21E3002F01CF842
:1030800067214DF21F3002F017F802214DF2203077
:1030900002F012F884214DF2213002F00DF80221E5
:1030A0004DF2223002F008F8A4214DF2233002F054
:1030B00003F802214DF2243001F0FEFFB7214DF25A
:1030C000253001F0F9FF02214DF2263001F0F4FF26
:1030D000CF214DF2273001F0EFFF02214DF22830D1
:1030E00001F0EAFFDE214DF2293001F0E5FF022177
:1030F0004DF22A3001F0E0FFF2214DF22B3001F0C9
:10310000DBFF02214DF22C3001F0D6FFFE214DF203
:103110002D3001F0D1FF03214DF22E3001F0CCFF14
:1031200010214DF22F3001F0C7FF03214DF2303056
:1031300001F0C2FF33214DF2313001F0BDFF032118
:103140004DF2323001F0B8FF6D214DF2333001F015
:10315000B3FF00214FF4544001F0AEFF33214DF294
:10316000014001F0A9FF00214DF2024001F0A4FF4F
:1031700034214DF2034001F09FFF00214DF2044045
:1031800001F09AFF3A214DF2054001F095FF002130
:103190004DF2064001F090FF4A214DF2074001F048
:1031A0008BFF00214DF2084001F086FF5C214DF2BB
:1031B000094001F081FF00214DF20A4001F07CFF3F
:1031C00081214DF20B4001F077FF00214DF20C40C0
:1031D00001F072FFA6214DF20D4001F06DFF0021BC
:1031E0004DF20E4001F068FFE5214DF20F4001F075
:1031F00063FF01214DF2104001F05EFF13214DF2FB
:10320000114001F059FF01214DF2124001F054FF2D
:1032100054214DF2134001F04FFF01214DF21440B3
:1032200001F04AFF82214DF2154001F045FF0121D6
:103230004DF2164001F040FFCA214DF2174001F057
:103240003BFF02214DF2184001F036FF00214DF204
:10325000194001F031FF02214DF21A4001F02CFF1C
:1032600001214DF21B4001F027FF00E004E30221A1
:103270004DF21C4001F020FF34214DF21D4001F0C1
:103280001BFF02214DF21E4001F016FF67214DF297
:103290001F4001F011FF02214DF2204001F00CFF10
:1032A00084214DF2214001F007FF02214DF222401E
:1032B00001F002FFA4214DF2234001F0FDFE0221A6
:1032C0004DF2244001F0F8FEB7214DF2254001F007
:1032D000F3FE02214DF2264001F0EEFECF214DF229
:1032E000274001F0E9FE02214DF2284001F0E4FE02
:1032F000DE214DF2294001F0DFFE02214DF22A408D
:1033000001F0DAFEF2214DF22B4001F0D5FE022150
:103310004DF22C4001F0D0FEFE214DF22D4001F087
:10332000CBFE03214DF22E4001F0C6FE10214DF2DE
:103330002F4001F0C1FE03214DF2304001F0BCFEF0
:1033400033214DF2314001F0B7FE03214DF23240FE
:1033500001F0B2FE6D214DF2334001F0ADFE0021CF
:103360004FF4554001F0A8FE33214DF2015001F019
:10337000A3FE00214DF2025001F09EFE34214DF2D9
:10338000035001F099FE00214DF2045001F094FE2B
:103390003A214DF2055001F08FFE00214DF206500A
:1033A00001F08AFE4A214DF2075001F085FE00210E
:1033B0004DF2085001F080FE5C214DF2095001F001
:1033C0007BFE00214DF20A5001F076FE81214DF284
:1033D0000B5001F071FE00214DF20C5001F06CFE1B
:1033E000A6214DF20D5001F067FE00214DF20E5066
:1033F00001F062FEE5214DF20F5001F05DFE01216A
:103400004DF2105001F058FE13214DF2115001F011
:1034100053FE01214DF2125001F04EFE54214DF2A7
:10342000135001F049FE01214DF2145001F044FE09
:1034300082214DF2155001F03FFE01214DF2165050
:1034400001F03AFECA214DF2175001F035FE02217B
:103450004DF2185001F030FE00214DF2195001F0EC
:103460002BFE02214DF21A5001F026FE01214DF2F1
:103470001B5001F021FE02214DF21C5001F01CFEF8
:1034800034214DF21D5001F017FE02214DF21E5065
:1034900001F012FE67214DF21F5001F00DFE0221D6
:1034A0004DF2205001F008FE84214DF2215001F030
:1034B00003FE02214DF2225001F0FEFDA4214DF247
:1034C000235001F0F9FD02214DF2245001F0F4FDEA
:1034D000B7214DF2255001F0EFFD02214DF22650AB
:1034E00001F0EAFDCF214DF2275001F0E5FD022168
:1034F0004DF2285001F0E0FDDE214DF2295001F09F
:10350000DBFD02214DF22A5001F0D6FDF2214DF2F1
:103510002B5001F0D1FD02214DF22C5001F0CCFDD9
:10352000FE214DF22D5001F0C7FD03214DF22E502A
:1035300001F0C2FD10214DF22F5001F0BDFD03211D
:103540004DF2305001F0B8FD33214DF2315001F011
:10355000B3FD03214DF2325001F0AEFD6D214DF26D
:10356000335001F0A9FD00214FF4564001F0A4FDB5
:1035700033214DF2016001F09FFD00214DF2026008
:1035800001F09AFD34214DF2036001F095FD002118
:103590004DF2046001F090FD3A214DF2056001F01A
:1035A0008BFD00214DF2066001F086FD4A214DF2AF
:1035B000076001F081FD00214DF2086001F07CFD03
:1035C0005C214DF2096001F077FD00214DF20A60A7
:1035D00001F072FD81214DF20B6001F06DFD0021C3
:1035E0004DF20C6001F068FDA6214DF20D6001F076
:1035F00063FD00214DF20E6001F05EFDE5214DF20C
:103600000F6001F059FD01214DF2106001F054FDF1
:1036100013214DF2116001F04FFD01214DF21260B6
:1036200001F04AFD54214DF2136001F045FD0121E6
:103630004DF2146001F040FD82214DF2156001F061
:103640003BFD01214DF2166001F036FDCA214DF21D
:10365000176001F031FD02214DF2186001F02CFDE0
:1036600000214DF2196001F027FD02214DF21A6090
:1036700001F022FD01214DF21B6001F01DFD022130
:103680004DF21C6001F018FD34214DF21D6001F077
:1036900013FD02214DF21E6001F00EFD67214DF277
:1036A0001F6001F009FD02214DF2206001F004FDD0
:1036B00084214DF2216001F0FFFC02214DF22260D5
:1036C00001F0FAFCA4214DF2236001F0F5FC022187
:1036D0004DF2246001F0F0FCB7214DF2256001F0BD
:1036E000EBFC02214DF2266001F0E6FCCF214DF209
:1036F000276001F0E1FC02214DF2286001F0DCFCC2
:10370000DE214DF2296001F0D7FC02214DF22A6042
:1037100001F0D2FCF2214DF22B6001F0CDFC022130
:103720004DF22C6001F0C8FCFE214DF22D6001F03D
:10373000C3FC03214DF22E6001F0BEFC10214DF2BE
:103740002F6001F0B9FC03214DF2306001F0B4FCB0
:1037500033214DF2316001F0AFFC03214DF23260B4
:1037600001F0AAFC6D214DF2336001F0A5FC55215A
:103770004FF4704001F0A0FCAA214FF2010001F0CB
:103780009BFC52214FF2020001F096FC08214FF2FF
:10379000030001F091FC00214FF2040001F08CFCC9
:1037A000CC214FF4314001F087FC00214BF2011095
:1037B00001F082FC05214FF4364001F07DFC7021C0
:1037C0004FF4374001F078FC70214BF2017001F0AA
:1037D00073FC01214FF4384001F06EFC03214BF6DD
:1037E000010001F069FC03214BF6020001F064FCCA
:1037F00003214BF6030001F05FFC02214FF43C4033
:1038000001F05AFC00214BF6014001F055FC00216B
:103810004BF6024001F050FCD0214FF4494001F03A
:103820004BFC02214CF6011001F046FC50214CF6F5
:10383000021001F041FC50214CF6031001F03CFC59
:1038400050214CF6041001F037FC00214FF4545085
:1038500001F032FC55214FF4685001F02DFC4FF47B
:10386000885001F013FC782003F07CFA4FF42450C8
:1038700001F00CFC01F05EB9FE48808849F2253168
:1038800088427DD147F6F001E52001F015FC4FF4A8
:103890008071012001F010FC4FF4E061022001F082
:1038A0000BFC41F23001032001F006FC0021042052
:1038B00001F002FC40F20221082001F0FDFB002192
:1038C000092001F0F9FB00210A2001F0F5FB00219D
:1038D0000C2001F0F1FB00210D2001F0EDFB002197
:1038E0000F2001F0E9FB0021102001F0E5FB07218A
:1038F000112001F0E1FB0021122001F0DDFB00218D
:10390000132001F0D9FB0021072001F0D5FB41F283
:103910009061102001F0D0FB40F22721112001F02E
:10392000CBFB9D21122001F0C7FB4FF4C85113209F
:1039300001F0C2FB2521292001F0BEFB0D212B2027
:1039400001F0BAFB0721302001F0B6FB40F2033151
:10395000312001F0B1FB0321322001F0ADFB40F238
:103960000621352001F0A8FB0821362001F0A4FB38
:1039700040F20641372001F09FFB4FF4417100E017
:1039800058E0382001F098FB0721392001F094FB22
:1039900040F202613C2001F08FFB08213D2001F044
:1039A0008BFB0021502001F087FBEF21512001F01B
:1039B00083FB0021522001F07FFB40F23F11532096
:1039C00001F07AFB4FF42741602001F075FB0121E3
:1039D000612001F071FB00216A2001F06DFB0021E4
:1039E000802001F069FB0021812001F065FB0021AE
:1039F000822001F061FB0021832001F05DFB0021AA
:103A0000842001F059FB0021852001F055FB102195
:103A1000902001F051FB4FF4C061922001F04CFB6B
:103A200040F23311072001F047FB2221002001F072
:103A300043FB1FE78F48808849F2283188427DD1B7
:103A400041F28F01EC2001F037FB41F23421EF20ED
:103A500001F032FB4FF48071012001F02DFB4FF497
:103A6000E061022001F028FB41F23001032001F067
:103A700023FB0021042001F01FFB40F2022108205B
:103A800001F01AFB0021092001F016FB00210A2099
:103A900001F012FB01210C2001F00EFB00210D2092
:103AA00001F00AFB00210F2001F006FB002110208D
:103AB00001F002FB0721112001F0FEFA0021122083
:103AC00001F0FAFA0021132001F0F6FA0121072093
:103AD00001F0F2FA322003F029F941F2904110206E
:103AE00001F0EAFA40F22721112001F0E5FA322034
:103AF00003F01CF98A21122001F0DEFA322003F0D3
:103B000015F94FF4D051132001F0D6FA06212920DF
:103B100001F0D2FA0D212B2001F0CEFA322003F071
:103B200005F90021202001F0C7FA0021212001F031
:103B3000C3FA322003F0FAF8002100E075E03020EB
:103B400001F0BAFA40F20461312001F0B5FA40F216
:103B50000531322001F0B0FA0021352001F0ACFA35
:103B600040F60941362001F0A7FA4FF401713720E1
:103B700001F0A2FA40F20131382001F09DFA40F242
:103B80000771392001F098FA00213C2001F094FAE5
:103B900040F60A213D2001F08FFA322003F0C6F8EA
:103BA0000021502001F088FAEF21512001F084FA21
:103BB0000021522001F080FA40F23F11532001F021
:103BC0007BFA4FF42741602001F076FA0121612051
:103BD00001F072FA00216A2001F06EFA00218020C3
:103BE00001F06AFA0021812001F066FA00218220AA
:103BF00001F062FA0021832001F05EFA00218420A6
:103C000001F05AFA0021852001F056FA1021902087
:103C100001F052FA4FF4C061922001F04DFA40F2E7
:103C20003311072001F048FA24E61248808849F24F
:103C3000203188427ED10021084601F03DFA4FF440
:103C40008071012001F038FA4FF4E061022001F0A8
:103C500033FA41F23001032001F02EFA0021042052
:103C600001F02AFA40F20221082001F025FA002191
:103C7000092001E02808002001F01EFA00210A2096
:103C800001F01AFA01210C2001F016FA00210D2092
:103C900001F012FA00210F2001F00EFA322003F099
:103CA00045F840F20111072001F006FA322003F036
:103CB0003DF84FF48651102001F0FEF90721112044
:103CC00001F0FAF94FF48871122001F0F5F94FF480
:103CD0003061132001F0F0F90021292001F0ECF906
:103CE00044F210012B2001F0E7F90021502001F0EF
:103CF000E3F9EF21512001F0DFF90021522001F01A
:103D0000DBF940F23F11532001F0D6F94FF41C517A
:103D1000602001F0D1F90121612001F0CDF90021ED
:103D20006A2001F0C9F90021802001F0C5F90021C5
:103D3000812000E030E001F0BFF90021822001F095
:103D4000BBF90021832001F0B7F90021842001F0A4
:103D5000B3F90021852001F0AFF91021902001F086
:103D6000ABF90021922001F0A7F90121932001F085
:103D7000A3F94FF48871952001F09EF90021972056
:103D800001F09AF90021982001F096F940F27311A0
:103D9000072001F091F96DE5FE48808849F2313144
:103DA00088427DD141F21401E72001F085F94FF4FA
:103DB0008071012001F080F94FF40071022001F0C0
:103DC0007BF941F23801032001F076F940F202213B
:103DD000082001F071F90021092001F06DF900219E
:103DE0000A2001F069F900210C2001F065F9002199
:103DF0000D2001F061F900210F2001F05DF9002193
:103E0000102001F059F90721112001F055F9002186
:103E1000122001F051F90021132001F04DF9C820C2
:103E200002F084FF41F29061102001F045F940F268
:103E30002721112001F040F9322002F077FF0C21F8
:103E4000122001F039F9322002F070FF4FF40061C6
:103E5000132001F031F91121292001F02DF90B2156
:103E60002B2001F029F9322002F060FF00212020F0
:103E700001F022F940F23F11212001F01DF900214B
:103E8000302001F019F94FF48371312001F014F959
:103E90000021322001F010F94FF40171352000E0CB
:103EA00064E001F009F941F20A61362001F004F9F9
:103EB00040F20771372001F0FFF84FF4837138208A
:103EC00001F0FAF840F20771392001F0F5F840F2FC
:103ED00002413C2001F0F0F840F60F413D2001F096
:103EE000EBF80021502001F0E7F8EF21512001F01C
:103EF000E3F80021522001F0DFF840F23F11532097
:103F000001F0DAF84FF41C51602001F0D5F80121DE
:103F1000612001F0D1F800216A2001F0CDF80021E4
:103F2000802001F0C9F80021812001F0C5F80021AE
:103F3000822001F0C1F80021832001F0BDF80021AA
:103F4000842001F0B9F80021852001F0B5F8102196
:103F5000902001F0B1F84FF4C061922001F0ACF86C
:103F600040F23311072001F0A7F883E489488088E4
:103F700045F2084188427DD14FF48071012001F063
:103F80009BF84FF4E061022001F096F841F2300115
:103F9000032001F091F80021042001F08DF840F297
:103FA0000721082001F088F80021092001F084F899
:103FB00000210A2001F080F800210C2001F07CF89B
:103FC00000210D2001F078F800210F2001F074F895
:103FD000142002F0ABFE41F2B061102001F06CF849
:103FE0000121112001F068F80121172001F064F887
:103FF0004FF49C71122001F05FF84FF40061132020
:1040000001F05AF80921292001F056F809212A2047
:1040100001F052F80021A42001F04EF800215020B8
:1040200001F04AF8EF21512001F046F8002152201A
:1040300001F042F840F23F11532001F03DF84FF4F7
:104040001C51602001F038F80121612001F034F8A2
:1040500000216A2001F030F80021802001F02CF8C6
:104060000021812001F028F80021822001F024F8AD
:10407000002100E024E0832001F01EF800218420CC
:1040800001F01AF80021852001F016F81321902084
:1040900001F012F80021922001F00EF80321932084
:1040A00001F00AF84FF48871952001F005F840F20C
:1040B0007311072001F000F8322002F037FEB8E457
:1040C0003448808841F2055188427DD10021072083
:1040D00000F0F2FF322002F029FE4FF48E71122020
:1040E00000F0EAFF0121A42000F0E6FF0F210820E4
:1040F00000F0E2FF08210A2000F0DEFF08210D2079
:1041000000F0DAFF40F20771302000F0D5FF072100
:10411000312000F0D1FF40F20361322000F0CCFFEB
:104120004FF4E061332000F0C7FF40F20221342059
:1041300000F0C2FF0221352000F0BEFF41F60F71F2
:10414000362000F0B9FF40F20771372000F0B4FFCD
:104150000021382000F0B0FF0021392000F0ACFF32
:1041600040F207713A2000F0A7FF00213B2000F049
:10417000A3FF07213C2000F09FFF00213D2000F01D
:104180009BFF322002F0D2FD0121072000F094FFB6
:10419000012101E028080020172000F08DFF3220C7
:1041A00002F0C4FD4FF4BD51102000F085FF40F235
:1041B0001721112000F080FF4FF48F71122000F0C2
:1041C0007BFF4FF4706100E098E0132000F074FF73
:1041D00000212A2000F070FF0A21292000F06CFF46
:1041E0004FF49F71122000F067FF0021502000F073
:1041F00063FFEF21512000F05FFF0021522000F00B
:104200005BFF40F23F11532000F056FF4FF41C516A
:10421000602000F051FF0121612000F04DFF0021DE
:104220006A2000F049FF0021802000F045FF0021B6
:10423000812000F041FF0021822000F03DFF00219D
:10424000832000F039FF0021842000F035FF002199
:10425000852000F031FF1321902000F02DFF4FF456
:104260004071922000F028FF0521932000F024FFE8
:104270000021952000F020FF0021972000F01CFF76
:104280000021982000F018FF4FF48071012000F009
:1042900013FF4FF4E061022000F00EFF41F23801FD
:1042A000032000F009FF0021042000F005FF002199
:1042B0000C2000F001FF00210F2000F0FDFE002186
:1042C000202000F0F9FE0021212000F0F5FE212140
:1042D000072000F0F1FE142002F028FD61210720E4
:1042E00000F0EAFE142002F021FD40F273110720D5
:1042F00000F0E2FE142002F019FD95E4FE488088EB
:104300004BF2055188427CD10021084600F0D4FED2
:104310000021084600F0D0FE0021084600F0CCFE47
:104320000021084600F0C8FE0121A42000F0C4FED0
:10433000142002F0FBFC4FF41C51602000F0BCFE86
:1043400040F20221082000F0B7FE4FF40571302042
:1043500000F0B2FE43F21571312000F0ADFE40F2E4
:104360000461322000F0A8FE40F61661332000F010
:10437000A3FE42F21121342000F09EFE4FF4A8511A
:10438000352000F099FE48F20751362000F094FEE7
:1043900041F20741372000F08FFE41F203413820FF
:1043A00000F08AFE2021392000F086FE1A2190209C
:1043B00000F082FE0021102000F07EFE0721112077
:1043C00000F07AFE0021122000F076FE002113207A
:1043D00000F072FE142002F0A9FC4FF4E6611020F8
:1043E00000F06AFE40F23711112000F065FE142043
:1043F00002F09CFC4FF4DC71122000F05DFE1420F2
:1044000000E085E002F092FC4FF47061132000F0B0
:1044100053FE80212A2000F04FFE4821292000F081
:104420004BFE142002F082FC4FF48071012000F05A
:1044300043FE4FF4E061022000F03EFE41F23801FD
:10444000032000F039FE40F20221082000F034FE83
:1044500000210A2000F030FE00210C2000F02CFE8C
:1044600000210D2000F028FE30210E2000F024FE57
:104470000021502000F020FEEF21512000F01CFE12
:104480000021522000F018FE40F23F11532000F0AE
:1044900013FE4FF41C51602000F00EFE012161203C
:1044A00000F00AFE00216A2000F006FE1121902093
:1044B00000F002FE4FF4C061922000F0FDFD40F2DA
:1044C0000241932000F0F8FD0221942000F0F4FD59
:1044D000142002F02BFC0121072000F0EDFD142038
:1044E00002F024FC6121072000F0E6FD40F2731188
:1044F000072000F0E1FD0021202000F0DDFD00217B
:10450000212000F0D9FD2221002000F0D5FD11E38B
:10451000794880884CF2055188427CD100210846B8
:1045200000F0CAFD0021084600F0C6FD142002F08C
:10453000FDFB0021084600F0BFFD0021084600F009
:10454000BBFD0021084600F0B7FD0021084600F041
:10455000B3FD0121A42000F0AFFD142002F0E6FB22
:104560004FF41C51602000F0A7FD40F60601082022
:1045700000F0A2FD40F20371302000F09DFD01210A
:10458000312000F099FD0421322000F095FD4FF418
:104590008171332000F090FD4FF44071342000F021
:1045A0008BFD40F20311352000F086FD1F213620DF
:1045B00000F082FD40F20371372000F07DFD012103
:1045C000382000F079FD0421392000F075FD152117
:1045D000902000F071FD4FF48261102000F06CFD1E
:1045E00040F24721112000F067FD4FF4DE711220E8
:1045F00000F062FD4FF46061132000F05DFD782053
:1046000002F094FB4FF48071012000F055FD4FF44F
:104610000071022000E052E000F04EFD41F2300156
:10462000032000F049FD08210A2000F045FD00218B
:104630000C2000F041FD20210E2000F03DFD002166
:104640000F2000F039FD0021202000F035FD002171
:10465000212000F031FD3D212A2000F02DFD142005
:1046600002F064FB2D21292000F026FD00215020BE
:1046700000F022FD4DF2EF01512000F01DFD002160
:10468000522000F019FD40F23F11532000F014FDBC
:104690000021612000F010FD00216A2000F00CFDD7
:1046A0004FF44071922000F007FD0521932000F0A7
:1046B00003FD4FF48071072000F0FEFC3AE20E4843
:1046C000808844F2315188427ED10121002000F0DF
:1046D000F3FC0A2002F02AFB41F22861102000F0CE
:1046E000EBFC0E21122000F0E7FC40F639211320EC
:1046F00000F0E2FC0A2001E02808002002F016FB8E
:104700004021112000F0D8FC5021152000F0D4FCED
:104710000A2002F00BFB1E21122000F0CDFC0A2023
:1047200002F004FB4FF4B151102000F0C5FC42F63A
:104730003921132000F0C0FC0A2002F0F7FA4FF4F0
:104740008071012000F0B8FC4FF44071022000F0AD
:10475000B3FC41F23801032000F0AEFC40F202212C
:10476000082000F0A9FC08210A2000F0A5FC002187
:10477000302000F0A1FC40F20241312000F09CFC0E
:104780004FF48371322000F097FC40F20351332044
:1047900000F092FC4FF48271342000F08DFC40F266
:1047A0000131352000F088FC40F20771362000F01E
:1047B00083FC40F20531372000F07EFC4FF402719B
:1047C000382000F079FC00E03EE040F60B71392023
:1047D00000F072FC0221412000F06EFC4FF41C51ED
:1047E000602000F069FC0121612000F065FC4FF4BD
:1047F0000471902000F060FC4FF48571922000F06D
:104800005BFC0421932000F057FC4FF48071A02042
:1048100000F052FC0121072000F04EFC212107206E
:1048200000F04AFC2321072000F046FC332107203A
:1048300000F042FC40F23311072000F03DFC002163
:10484000A02000F039FC75E1C048808844F2355161
:1048500088427CD13021152000F02EFC10219A20B6
:1048600000F02AFC2021112000F026FC43F2284110
:10487000102000F021FC0221122000F01DFC41F26A
:104880003801132000F018FC282002F04FFA122102
:10489000084600F011FC282002F048FA43F22041BB
:1048A000102000F009FC43F23801132000F004FC52
:1048B000462002F03BFA0021302000F0FDFB40F2E0
:1048C0000241312000F0F8FB40F20731322000F0C5
:1048D000F3FB4FF44171332000F0EEFB0421342050
:1048E00000F0EAFB40F20141352000F0E5FB40F228
:1048F0000771362000F0E0FB40F20531372000F070
:10490000DBFB4FF4C261382000F0D6FB4FF4C261EC
:10491000392000F0D1FB4FF48071012000F0CCFB76
:104920004FF44071022000F0C7FB41F23001032038
:1049300000F0C2FB40F60801082000F0BDFB082192
:104940000A2000F0B9FB4FF41C51602000E033E076
:1049500000F0B2FB0121612000F0AEFB4FF49F712B
:10496000902000F0A9FB4FF48071922000F0A4FB8E
:104970004FF48071932000F09FFB4FF44051A02032
:1049800000F09AFB1021A32000F096FB01210720E4
:1049900000F092FB2121072000F08EFB232107204D
:1049A00000F08AFB3321072000F086FB40F2331130
:1049B000072000F081FBBDE06448808841F6631168
:1049C0008842F8D1E22000F061FB1D2000F052FB8C
:1049D000022000F04FFB042000F04CFB642002F0AA
:1049E000C1F9E02000F052FB012000F043FB0A2057
:1049F00002F09CF9E02000F049FB032000F03AFBB4
:104A00000C2002F093F9012000F040FB0A2002F094
:104A10008DF9E62000F03AFB2F2000F02BFBFF2061
:104A200000F028FBFF2000F025FBB02000F02EFB5B
:104A3000202000F01FFB002000F01CFB032000F0F2
:104A400019FB40F21F3000F015FB012000F012FBB3
:104A500040F2DF1000F00EFB002000F00BFBB42052
:104A600000F014FB042000F005FB40F21F4000F0B2
:104A700001FB002000F0FEFA2E2000F0FBFA0020DF
:104A800000F0F8FA002000F0F5FA002000F0F2FA49
:104A9000002000F0EFFAB62000F0F8FA022000F053
:104AA000E9FA4FF4037000F0E5FA002000F0E2FAB2
:104AB000172000F0DFFA152000F0DCFA002000F0EB
:104AC000D9FA002000F0D6FAF02000F0DFFA032037
:104AD00000F0D0FA292000F0D9FAD02000F0D6FA60
:104AE000002000F0C7FABE2000F0D0FA052000F048
:104AF000C1FAFE2000F0BEFA012000F0BBFA00204F
:104B000000F0B8FA002000F0B5FA002000F0B2FA88
:104B1000B82000F0BBFA032000F0ACFA012000F04E
:104B2000A9FABA2000F0B2FA012000F0A3FA64203A
:104B300000F026F80020FCF783FA01200449086001
:104B40004FF6FF70FCF746FA21B000BD28080020A0
:104B5000BC82404208B5034800880090BDF80000C0
:104B600008BD00008000006C10B50446204600F02F
:104B70008DFA052002F0F6F8FFF7ECFF10BD0000FB
:104B800070B52DED048B0446BE2000F07FFA0520A1
:104B900000F070FA204604F05EFD41EC190B9FED29
:104BA0000E0B53EC102B04F069FD41EC180B04F0D4
:104BB00025FD85B2284600F05DFA012000F05AFA82
:104BC000FF2000F057FA002000F054FA002000F017
:104BD00051FABDEC048B70BD66666666666604407D
:104BE000F0B5054600240027B748807901280BD18D
:104BF000B548808846F60401884205D0B2488088CE
:104C000041F66311884208D1AF488079F0B9AE48C7
:104C1000808841F66311884218D1082D15D2DFE84B
:104C200005F00406080A0C0E101206250DE00725F3
:104C30000BE0042509E0052507E0012505E0002536
:104C400003E0032501E0022500BF00BF9E488088E5
:104C500049F24131884217D09B48808846F60401CA
:104C6000884211D09848808845F2103188420BD094
:104C70009548808845F21051884205D09248808836
:104C800041F6631188427DD1082D1CD2DFE805F082
:104C90000406090C0F12151800BF14E044F080043C
:104CA00011E044F040040EE044F0C0040BE044F096
:104CB000200408E044F0600405E044F0A00402E0B1
:104CC00044F0E00400BF00BF7F48808845F21051E7
:104CD000884202D14FF4585700E036277A4880883E
:104CE00045F2103188420DD07748808845F2105146
:104CF000884207D07448808841F66311884201D009
:104D000044F008047048808846F60401884201D1C6
:104D100044F002042146384600F0CEF96A48808803
:104D200041F6631188421DD004F0200068B1664846
:104D3000008865494988884214DA634806884088B3
:104D400061490880084646800CE05F4800885E495B
:104D50004988884206DD5C48068840885A490880B0
:104D6000084646805848808845F21051884254D100
:104D70005549488900F08AF9002000F07BF9524932
:104D8000498900E078E0491C88B200F07FF90020F2
:104D900000F070F94C494989891C88B200F076F915
:104DA00049490988491EC1F30F2000F063F94649BB
:104DB0004989C91C88B200F069F943490978491E3C
:104DC000C8B200F057F94049888900F05FF9002027
:104DD00000F050F93C498989491C88B200F056F925
:104DE000002000F047F938498989891C88B200F011
:104DF0004DF935494988491EC1F30F2000F03AF9B1
:104E000031498989C91C88B200F040F92E49897856
:104E1000491EC8B200F02EF955E02B49488900F030
:104E200035F9002000F026F9002000F023F926498A
:104E30000988491EC1F30F2000F01CF922490978A6
:104E4000491EC8B200F016F91F49888900F01EF902
:104E5000002000F00FF9002000F00CF91A494988F1
:104E6000491EC1F30F2000F005F917498978491E42
:104E7000C8B200F0FFF826E0082D1CD2DFE805F0EC
:104E800004070A0D0F12151844F0300413E044F023
:104E9000100410E044F020040DE000BF0BE044F0EB
:104EA000380408E044F0280405E044F0180402E067
:104EB00044F0080400BF00BF032744F48054214697
:104EC000384600F0F9F8F0BD2808002030B5044657
:104ED0000D466748808849F24131884205D06448D0
:104EE000808845F21031884214D16149488900F028
:104EF000CDF8201200F0BEF8E0B200F0BBF85C493B
:104F0000888900F0C3F8281200F0B4F8E8B200F085
:104F1000B1F8ABE05648808846F6040188421DD1BE
:104F200053488079012804D151480088401E001B55
:104F300084B24F49488900F0A9F8201200F09AF88D
:104F4000E0B200F097F84A49888900F09FF82812EB
:104F500000F090F8E8B200F08DF887E044488088CF
:104F600041F66311884247D141488079A8B9404849
:104F70000088401E001B84B23D49488900F086F835
:104F8000002000F077F8002000F074F8201200F004
:104F900071F8E0B200F06EF816E03549488900F08B
:104FA00075F8201200F066F8E0B200F063F83049BE
:104FB0000988491EC1F30F2000F05CF82C490978DC
:104FC000491EC8B200F056F82949888900F05EF8F9
:104FD000281200F04FF8E8B200F04CF82449498854
:104FE000491EC1F30F2000F045F821498978491E78
:104FF000C8B200F03FF839E01D48808845F21051F2
:10500000884220D11A49488900F040F8201200F067
:1050100031F817494989491C88B200F037F8E0B2E5
:1050200000F028F81249888900F030F8281200F0C2
:1050300021F80F498989491C88B200F027F8E8B2A5
:1050400000F018F812E00A488079012804D10848D5
:105050000088401E001B84B205494889214600F0A3
:105060002BF803498889294600F026F830BD000056
:105070002808002001B5BDF800000090BDF8000030
:105080000149088008BD00008000006C01B5BDF832
:1050900000000090BDF800000149088008BD000034
:1050A0007E00006C024800890249088070470000B9
:1050B000280800207E00006C034A10804FF0D84280
:1050C000A2F88010704700007E00006C1CB5012122
:1050D000202000F09FFA4FF4C060009001208DF86E
:1050E000040000208DF8060003208DF80500012043
:1050F0008DF8070069460448FBF7FDFE4FF4C061D8
:105100000148FBF763FF1CBD0014024000BFFEE72F
:1051100008B501788DF8001001798DF80110017A39
:105120008DF80210017B8DF803109DF8001001EB43
:105130004101ED4A12F81110017001789DF801202B
:1051400002EB4202E84B03EB4202527851400170FD
:1051500001789DF802205140017001789DF80320EC
:10516000514001709DF80010017101799DF80120F6
:1051700002EB420213F812205140017101799DF8AF
:10518000022002EB420203EB4202527851400171CD
:1051900001799DF80320514001719DF800100172C2
:1051A000017A9DF8012051400172017A9DF8022098
:1051B00002EB420213F8122051400172017A9DF86D
:1051C000032002EB420203EB42025278514001728B
:1051D0009DF8001001EB41011A4602EB41014978AC
:1051E0000173017B9DF8012051400173017B9DF803
:1051F000022051400173017B9DF8032002EB420223
:1052000013F812205140017341788DF80010417954
:105210008DF80110417A8DF80210417B8DF8031052
:105220009DF8001001EB41011A4612F8111041706F
:1052300041789DF8012002EB420203EB42025278D2
:105240005140417041789DF80220514041704178B1
:105250009DF80320514041709DF800204271417932
:105260009DF8012002EB420213F8122051404171D7
:1052700041799DF8022002EB420203EB4202527890
:105280005140417141799DF80320514041719DF891
:1052900000204272417A9DF8012051404172417ACA
:1052A0009DF8022002EB420213F812205140417295
:1052B000417A9DF8032002EB420203EB420252784E
:1052C000514041729DF8001001EB41011A4602EB7A
:1052D00041014A784273417B9DF80120514041735E
:1052E000417B9DF8022051404173417B9DF8032092
:1052F00002EB420213F812205140417381788DF87D
:10530000001081798DF80110817A8DF80210817B6F
:105310008DF803109DF8001001EB41011A4612F8B8
:105320001110817081789DF8012002EB420203EB9D
:10533000420252785140817081789DF8022051409C
:10534000817081789DF80320514081709DF8002084
:10535000827181799DF8012002EB420213F812203C
:105360005140817181799DF8022002EB420203EBEA
:10537000420252785140817181799DF80320514059
:1053800081719DF800208272817A9DF80120514040
:105390008172817A9DF8022002EB420213F81220FA
:1053A00051408172817A9DF8032002EB420203EBA7
:1053B00042025278514081729DF8001001EB410188
:1053C0001A4602EB41014A788273817B9DF80120E5
:1053D00051408173817B9DF8022051408173817B14
:1053E0009DF8032002EB420213F812205140817312
:1053F000C1788DF80010C1798DF80110C17A8DF84F
:105400000210C17B8DF803109DF8001001EB4101E3
:105410001A4612F81110C170C1789DF8012002EBF4
:10542000420203EB420252785140C170C1789DF8AC
:1054300002205140C170C1789DF803205140C170D5
:105440009DF80020C271C1799DF8012002EB420253
:1054500013F812205140C171C1799DF8022002EB6E
:10546000420203EB420252785140C171C1799DF86A
:1054700003205140C1719DF80020C272C17A9DF88D
:1054800001205140C172C17A9DF8022002EB420214
:1054900013F812205140C172C17A9DF8032002EB2B
:1054A000420203EB420252785140C1729DF8001053
:1054B00001EB41011A4602EB41014A78C273C17BFC
:1054C0009DF801205140C173C17B9DF802205140DD
:1054D000C173C17B9DF8032002EB420213F8122036
:1054E0005140C17308BD0000549C00083EB541F610
:1054F000FF740121080700F0ADF8012000F082F8E8
:10550000002000F06BFB45F25001884231D00120B1
:1055100000F054F904E0601C84B20A2001F006FC9B
:10552000412000F02BF90028F5D00CB901203EBD38
:105530004FF4807000F05EF9012000F055F97F20F3
:105540000190FF20029000200090684600F014FBBC
:1055500000231A4613210A2000F004FD04230C2224
:105560000B21142000F0ECFC45F25001002000F06B
:10557000FDFD0020DBE7704770B5002100230F22FE
:10558000C4781CB3174C246804F4E064C4F5E064E8
:10559000C4F30721C1F10404E3B20A4144789C40FA
:1055A000E1B28478144021430C07210E0E4C05789B
:1055B0006155047804F01F050124AC4005786D1195
:1055C000AD0005F1E025C5F8004109E0047804F0DC
:1055D0001F050124AC40054D0678761145F826409C
:1055E00070BD00000CED00E000E400E080E100E0B0
:1055F00002490143024A1160704700000000FA05A9
:105600000CED00E0014908627047000000000E4206
:105610007047000029B1064A12680243044B1A6021
:1056200004E0034A12688243014B1A60704700008D
:105630003038024029B1064A12680243044B1A600E
:1056400004E0034A12688243014B1A60704700006D
:105650003838024029B1064A12680243044B1A60E6
:1056600004E0034A12688243014B1A60704700004D
:105670004038024029B1064A12680243044B1A60BE
:1056800004E0034A12688243014B1A60704700002D
:1056900044380240F0B500210022002402250026F3
:1056A0000223324F3F6807F00C0121B1042905D0D5
:1056B000082937D105E02E4F076036E02D4F0760EF
:1056C00033E02A4F3F1F3F68C7F38056274F3F1FE5
:1056D0003F6807F03F036EB1264FB7FBF3F7DFF8E3
:1056E0008CC0ACF1040CDCF800C0CCF3881C07FBC8
:1056F0000CF40CE01E4FB7FBF3F7DFF870C0ACF111
:10570000040CDCF800C0CCF3881C07FB0CF4174F2A
:105710003F1F3F68C7F301477F1C7D00B4FBF5F7CF
:10572000076002E0124F076000BF00BF0F4F3F68E5
:1057300007F0F0010909104F7A5C0768D74047600D
:105740000A4F3F6807F4E051890A0B4F7A5C4768BB
:10575000D7408760054F3F6807F46041490B064F0B
:105760007A5C4768D740C760F0BD00000838024047
:105770000024F40000127A003E00002010B501461B
:105780000022002300204A11012A02D10A4C23687A
:1057900008E0022A03D1084C7034236802E0064C6A
:1057A0007434236801F01F02012494401C400CB1A2
:1057B000012000E0002010BD003802400021094A0D
:1057C00011701170012802D0042808D103E00121D2
:1057D000044A117004E00521024A117000E000BF84
:1057E00000BF7047703802400149086070470000F0
:1057F0003C0E4742002100F44072B2F5407F08D1D0
:10580000094A116821F4F811084A02401143064A76
:105810001160054A68321268C0F30B031A43024B49
:1058200068331A607047000008380240FFFCFF0F21
:1058300038B502460024009400230020CA24184DE5
:105840002C6053242C6041B1154C1C3C246814433B
:10585000134D1C3D2C6001201EE0114C1C3C2468A3
:1058600094430F4D1C3D2C6000BF0D4C183C246828
:1058700004EA1223009C641C0094009CB4F5803F51
:1058800001D0002BF1D0064C183C246804EA122405
:105890000CB9002000E00120FF24014D2C6038BD30
:1058A0002428004010B54FF4807000F0A3F80128C0
:1058B00005D1000200F028F803A0FAF70FFD4FF41D
:1058C0000030FBF73BFA10BD414C41524D204121C5
:1058D0000D0A0000014600BF080900EB80004200ED
:1058E00001F00F001044C0B270470146002204E0EE
:1058F000501CC2B2A1F10A00C1B20A29F8DA10079D
:1059000041EA10607047000081B241F08001044A12
:10591000126802F0800262EA0101014A11607047D8
:105920000C280040002101098AB242F08002044B99
:105930001B6803F0800363EA0202014B1A607047A0
:105940000C28004008B50022009200200021104AD7
:10595000126802F04002CAB9421E0D4B1A6000BF25
:105960000B4A126802F04001009A521C0092009A01
:10597000B2F5803F01D00029F2D0054A126802F04A
:1059800040020AB1012002E0002000E0012008BD31
:105990000C2800400348006820F08000014908609E
:1059A000704700000C28004070B506460C460025E4
:1059B0000E4800680E4900EA0105280CE070C5F3A6
:1059C0000420607005F03F00A070C5F342302070E5
:1059D0005EB9E078FFF77EFFE0706078FFF77AFF4E
:1059E0006070A078FFF776FFA07070BD04280040BB
:1059F0003FFFFF0010B5014600200022054B1B6849
:105A0000054C03EA040202EA01030BB1012000E0A5
:105A1000002010BD0C2800407F3F010070B50646F5
:105A20000C4600250F4800680F4900EA0105C5F340
:105A300005402070C5F30620607005F07F00A0705F
:105A400005F48000000CE0705EB92078FFF742FF9B
:105A500020706078FFF73EFF6070A078FFF73AFF94
:105A6000A07070BD002800407F7F7F002DE9F041CD
:105A700080460C461546002600272048006820492D
:105A800000EA01061D48001D00681E4900EA0107E2
:105A9000C6F305402070C6F30620607006F07F0054
:105AA000A07006F48000000CE0700020E870C7F3DE
:105AB0000420687007F03F00A870C7F342302870D8
:105AC000B8F1000F17D12078FFF704FF207060783D
:105AD000FFF700FF6070A078FFF7FCFEA070687809
